:040000008A15002835
:10000800FF00030E83018316CB000A08CA008A0189
:1000180083120C1C16280C106D308F0084308E0053
:100028008316C50A83164A088A004B0E8300FF0E02
:040038007F0E09002E
:08003C000000000000000800B4
:10004400313083120313FD00FD0B2628000000004D
:020054000800A2
:10005600163083120313FC006C30FD00FD0B3128B3
:08006600FC0B3128000008002A
:10006E0083160313D61B3E28831288124028831250
:10007E0088168316561B46288312081248288312A8
:10008E0008168316D61A4E2883128811502883120A
:10009E0088158316561A562883120811582883126B
:1000AE000815831643185E288312081460288312DD
:1000BE00081088141E2088108316D61969288312FA
:1000CE0088126B288312881683165619712883128C
:1000DE0008127328831208168316D61879288312ED
:1000EE0088117B288312881583165618812883124F
:1000FE000811832883120815831643188928831242
:10010E0008148B288312081088141E20881083165A
:0C011E00431C93282B209428222008006A
:10012A00831603131419A3281F301105F10071084F
:10013A00003A031DA3280130F000A428F0010800AA
:10014A0083160313D301D4015408123C031DAF28AC
:10015A0053088E3C031CBA28952070080319B62848
:10016A00BA28D30A0319D40AA92812305402031D43
:10017A00C0288F305302031CC5287B30F000CA28E0
:0C018A001114111CC928C628F00108003F
:1001960083120313F8010830FC00700DF80D740883
:1001A600F8020318D828F8070310F00DFC0BD02826
:0201B60008003F
:0E01B800831603133F088A003E0882000800E9
:1001C600023083120313FC00EF30FD00FD0BE9281B
:0A01D600FC0BE928000000000800FF
:1001E000831203138C118316530883129300831612
:1001F000141DFB28F72883128C19FF28FB2883166F
:10020000111B0429F001072911150230F000080024
:100210008316031343105308D60037208316431464
:020220000800D4
:100222002329803083160313D3003629C030D3002C
:1002320036299430D3003629D430D3003629803081
:10024200D3003629831603135308013A03191229DE
:100252005308023A031917295308033A03191A29B2
:100262005308043A03191D2920295403F0005308A6
:10027200F0077008D30043147008D60037208316A5
:0E02820043105508D600372083164314080099
:08029000831603131115080089
:1002980083120313A0012730FD00FD0B5129000034
:1002A8000000071867294F30FD00FD0B5929000091
:1002B8000000071C61290130A0002730FD00FD0B5C
:0802C80063290000000008009A
:1002D00083120313A101083021020318A129071872
:1002E00072296F291D30FD00FD0B742900000000EC
:1002F00007188C292108073CF0007008F100013034
:10030000F000710803198829F00D7010FF3E822952
:10031000F0097008A2059F292108073CF000700829
:10032000F1000130F000710803199A29F00D7010E6
:10033000FF3E94297008A204071C9F299C29A10A4A
:040340006B2908001D
:0E034400831603139114911CA829A529080003
:10035200831203137008F100F0010830FC007108E9
:10036200F40C0318B829FC0BB129F1010034031075
:10037200BD29F40C0318F107F10CF00CFC0BBA299F
:02038200080071
:10038400831203138C118316911583128C19CB29B4
:10039400C7291308F10083164D08003A031DD42918
:1003A4009116D529911283128C118316111683127A
:0C03B4008C19DD29D9297108F00008001F
:1003C00083160313D2014E08F1000130F0007108CA
:1003D0000319EE29F00D7010FF3EE8297008D100D6
:1003E0004D08840070080005F10071080130031DFC
:1003F0000030F0005008F0060319172A4F08003C9F
:100400000318072AE320E3208316CF03FE294D08B3
:10041000840051080005F10071080130031D00300F
:10042000F0005008F0060319172AFF30D2005208D6
:04043000F0000800D0
:10043400831603130710831207104730FC001F3084
:10044400FD00FD0B232AFC0B232A000000000714E7
:100454001D30FD00FD0B2C2A00000000831607143C
:0204640008008E
:1004660083160313881008100811881108128812C1
:1004760083128810081088120812881108112B2080
:100486002B202B208815081588141E2088102B2059
:1004960088141E2088102B2088141E2088102B20DC
:1004A600081188141E2088102B2088141E208810FE
:1004B6008811881688141E2088102B20881208158B
:1004C60088141E208810081188141E2088102B20DE
:1004D60088141E208810081588141E2088102B20CA
:1004E600081188141E208810881608168815081505
:0E04F60088141E2088102B2083164314080043
:10050400DC208A110A128000840ABE0A0319BF0A79
:08051400F003031D822A080018
:10051C00A520D030D300F0204D08D300F0204E0899
:08052C00D300F0204821080073
:100534007030831603134005C100C10CC113C10CF4
:10054400C113C10CC113C10CC1130F304005F1001C
:100554007108C000703083126A05EF00EF0CEF13CE
:10056400EF0CEF13EF0CEF13EF0CEF130F30EA0562
:1005740030306805E900E90CE913E90CE913E90CEA
:10058400E913E90CE9130F30E80530306E05EB0090
:10059400EB0CEB13EB0CEB13EB0CEB13EB0CEB1383
:1005A4000F30EE0500306C1A0130ED000F30EC0511
:1005B400F03083164805C200C20CC213C20CC21329
:1005C400C20CC213C20CC2130F30C8050130D300D1
:1005D4000830D40030307107D50011210130D30028
:1005E4000730D40030304107D50011210130D30049
:1005F4000530D400303083126A078316D5001121E8
:100604000130D3000430D400303083126F078316D6
:10061400D50011210130D3000230D40030308312D0
:1006240068078316D50011210130D3000130D400AE
:100634003030831269078316D50011210230D300AC
:100644000230D400303083126E078316D500112196
:100654000230D3000130D400303083126B0783168C
:10066400D50011210230D3000530D400303083127C
:100674006C078316D50011210230D3000430D40056
:10068400303083126D078316D50011210230D30058
:100694000A30D40030304807D50011210230D3008D
:1006A4000930D40030304207D50011210130D30085
:1006B4000E30D4000A30F4004708F000CB2030306C
:1006C40070078316D50011210130D3000F30D400F8
:1006D4000A30F4004708F000CB207808F0003030EE
:1006E40070078316D50011210230D3000E30D400D8
:1006F4000A30F4004608F000CB203030700783162F
:10070400D50011210230D3000F30D4000A30F40098
:100714004608F000CB207808F000303070078316CC
:06072400D50011210800C0
:10072A00831603131413941307168715383083128C
:04073A00940008001F
:10073E00B12B803083160313CD00C42BC030CD00F7
:10074E00C42B9430CD00C42BD430CD00C42B8030BC
:10075E00CD00C42B831603134D08013A0319A02BA9
:10076E004D08023A0319A52B4D08033A0319A82B7D
:10077E004D08043A0319AB2BAE2B4E03F0004D0877
:10078E00F0077008CD007008D6003720831643108E
:10079E00D00150084F07840000080319DE2B5008C3
:1007AE004F0784000008D3000821D00AD02B431431
:0207BE00080031
:10088C0020308400483083120313F000E0308316CC
:10089C00BE000330BF008222A03084001E30031340
:1008AC00F00028308316BE000430BF0082220800FE
:101000008A1146248A1531308312031390000C1084
:101010006D308F0084308E0083160C14C0308B002E
:10102000033086008A1133228A150130D6008A11D6
:1010300037208A150C308316D6008A1137208A157E
:101040001E30831693008A1195238A15AF308316BC
:10105000C9000130CD000330CE004908CF008A110D
:101060009F238A15A030C9000230CD000330CE0086
:101070004908CF008A119F238A15CD01CE018A111C
:101080008E228A1583126708013A031DE228013077
:101090008316D6008A1137208A1558308316C90066
:1010A0000130CD000230CE004908CF008A119F23C5
:1010B0008A1583126F08F0000A30F4008A11A92102
:1010C0008A157008EA0706308316CD00CE01643019
:1010D000CF00D0018A11E0218A1570080319722807
:1010E0008312E70A83126708013A0319A2280A301B
:1010F000F4006A08F0008A11CB208A157008831664
:10110000CC00CC0D4C10CC0D4C10CC0D4C10CC0D9B
:101110004C100A30F40083126A08F0008A11CB20C8
:101120008A157808F00083164C08F00770088312BF
:10113000EA0001308316CD007008CE008A118E229D
:101140008A15262883160630CD000130CE00643083
:10115000CF00D0018A11E0218A1570080319B22846
:101160008312EA0A83126A083B3C0318B828EA0192
:1011700002308316D3000830D4000A30F400831202
:101180006A08F0008A11CB208A1530307007831668
:10119000D5008A1111218A150230D3000930D400FC
:1011A0000A30F40083126A08F0008A11CB208A15F5
:1011B0007808F000303070078316D5008A111121AD
:1011C0008A15632883126708023A031D82290130B9
:1011D0008316D6008A1137208A153E308316C9003F
:1011E0000130CD000230CE004908CF008A119F2384
:1011F0008A1583126908F0000A30F4008A11A921C7
:101200008A157008E80706308316CD00CE016430D9
:10121000CF00D0018A11E0218A1570080319122924
:101220008312E70A83126708023A031942290A3037
:10123000F4006808F0008A11CB208A157008831624
:10124000CC00CC0D4C10CC0D4C10CC0D4C10CC0D5A
:101250004C100A30F40083126808F0008A11CB2089
:101260008A157808F00083164C08F007700883127E
:10127000E80002308316CD007008CE008A118E225D
:101280008A15262883160630CD000130CE00643042
:10129000CF00D0018A11E0218A1570080319522964
:1012A0008312E80A83126808173C03185829E801DA
:1012B00002308316D3000830D4000A30F4008312C1
:1012C0006808F0008A11CB208A1530307007831629
:1012D000D5008A1111218A150230D3000930D400BB
:1012E0000A30F40083126808F0008A11CB208A15B6
:1012F0007808F000303070078316D5008A1111216C
:101300008A15032983126708033A031D232A013033
:101310008316D6008A1137208A1531308316C9000A
:101320000130CD000230CE004908CF008A119F2342
:101330008A1583126B08F0000A30F4008A11A92183
:101340008A157008EE0706308316CD00CE01643092
:10135000CF00D0018A11E0218A1570080319B22943
:101360008312E70A83126708033A0319E2290A3055
:10137000F4006E08F0008A11CB208A1570088316DD
:10138000CC00CC0D4C10CC0D4C10CC0D4C10CC0D19
:101390004C100A30F40083126E08F0008A11CB2042
:1013A0008A157808F00083164C08F007700883123D
:1013B000EE0004308316CD007008CE008A118E2214
:1013C0008A15262883160630CD000130CE00643001
:1013D000CF00D0018A11E0218A1570080319F22983
:1013E0008312EE0A83126E081F3C0318F92901309C
:1013F000EE0002308316D3000830D4000A30F40027
:1014000083126E08F0008A11CB208A1530307007E5
:101410008316D5008A1111218A150230D3000930B4
:10142000D4000A30F40083126E08F0008A11CB2039
:101430008A157808F000303070078316D5008A11BD
:1014400011218A15A32983126708043A031DC42AAF
:1014500001308316D6008A1137208A15233083166F
:10146000C9000130CD000230CE004908CF008A11FA
:101470009F238A1583126D08F0000A30F4008A1148
:10148000A9218A157008EC0706308316CD00CE011D
:101490006430CF00D0018A11E0218A157008031949
:1014A000532A8312E70A83126708043A0319832A2E
:1014B0000A30F4006C08F0008A11CB208A157008FD
:1014C0008316CC00CC0D4C10CC0D4C10CC0D4C1018
:1014D000CC0D4C100A30F40083126C08F0008A1115
:1014E000CB208A157808F00083164C08F0077008A6
:1014F0008312EC0005308316CD007008CE008A11EF
:101500008E228A15262883160630CD000130CE00A3
:101510006430CF00D0018A11E0218A1570080319C8
:10152000932A8312EC0A83126C080C3C03189A2A43
:101530000130EC0002308316D3000830D4000A30AA
:10154000F40083126C08F0008A11CB208A15303029
:1015500070078316D5008A1111218A150230D30035
:101560000930D4000A30F40083126C08F0008A11AC
:10157000CB208A157808F000303070078316D5002C
:101580008A1111218A15442A83126708053A031D1E
:10159000732B01308316D6008A1137208A154B3001
:1015A0008316C9000130CD000230CE004908CF00BB
:1015B0008A119F238A154208F0000A30F4008A112C
:1015C000A9218A1570088316C8070630CD00CE0100
:1015D0006430CF00D0018A11E0218A157008031908
:1015E000F82A8312E70A6708053C0318F82AE7017E
:1015F00083126708053A0319262B0A30F400831674
:101600004808F0008A11CB208A1570088316CC0098
:10161000CC0D4C10CC0D4C10CC0D4C10CC0D4C10F6
:101620000A30F4004808F0008A11CB208A157808A7
:10163000F00083164C08F0077008C8000630CD0093
:101640007008CE008A118E228A152628831606304D
:10165000CD000130CE006430CF00D0018A11E021EE
:101660008A1570080319352BC80A4808633C03180B
:101670003A2BC8010230D3000730D4003230D500F5
:101680008A1111218A150230D3000830D40030307D
:10169000D5008A1111218A150230D3000930D400F7
:1016A0000A30F4004808F0008A11CB208A15303047
:1016B00070078316D5008A1111218A150230D300D4
:1016C0000A30D4000A30F4004808F0008A11CB2018
:1016D0008A157808F000303070078316D5008A111B
:1016E00011218A15E52A83164508133C0318962B09
:1016F000C5018A111A228A158A114C218A152008DF
:10170000013A031D932B8A1168218A15220883163A
:10171000C6008A1168218A158A1168218A15220853
:101720008316C700962B8316C601C7010630CD006D
:10173000CE016430CF00D0018A11E0218A157008F3
:101740000319A42B8312E70A8A11A5208A15D03029
:10175000D3008A11F0208A15D3018A11F0208A154E
:101760008A11A2218A15D130D3008A11F0208A155E
:101770000130CD008A11C2218A1570088316C0007D
:101780000130CD008A11C2218A157008EA000130AB
:101790008316CD008A11C2218A157008E800013035
:1017A0008316CD008A11C2218A1570088316C400E1
:1017B0000130CD008A11C2218A157008EE00013077
:1017C0008316CD008A11C2218A157008EC00831699
:1017D000CD018A11C2218A1570088316C8008A11AA
:0E17E00048218A158A119A228A154228F62B72
:0207C000003403
:0207C200003401
:0207C4000034FF
:1007C600413464346A3475347334743420344D34AB
:0C07D6006F346E34743468343A340034EC
:1007E200413464346A347534733474342034443498
:0A07F2006134743465343A34003485
:1007FC00413464346A34753473347434203448347A
:0A080C006F34753472343A3400344E
:10081600413464346A34753473347434203459344E
:0A0826006534613472343A34003452
:10083000413464346A3475347334743420344D3440
:0E08400069346E347534743465343A340034DF
:02084E00003474
:100850002F34203420342F343234303420342034B8
:0E086000203448343A34203420342534003417
:10086E003A34203420343A342034203420342034A6
:0E087E00203454343A342034203443340034CF
:02400E004A2F37
:00000001FF
